:020000040800F2
:1000000000000220654700084145000849450008F6
:1000100051450008594500086145000800000000EE
:10002000000000000000000000000000C1CA00083D
:10003000694500080000000011CD0008E1A6000895
:10004000B5470008B5470008B5470008B5470008A0
:10005000B5470008B5470008B5470008B547000890
:10006000B5470008B5470008B5470008B547000880
:10007000B5470008B5470008B5470008B547000870
:10008000B5470008B5470008B5470008B547000860
:10009000B5470008B5470008B5470008B547000850
:1000A000B5470008B5470008B5470008B547000840
:1000B000B5470008B5470008B5470008B547000830
:1000C000B5470008B5470008B5470008B547000820
:1000D000B5470008B5470008B5470008794500084E
:1000E000B5470008B5470008B5470008B547000800
:1000F000B5470008B54700088D450008B54700081A
:10010000B5470008B5470008B5470008B5470008DF
:10011000B5470008B5470008A1450008B5470008E5
:10012000B5470008B5470008B5470008B5470008BF
:10013000B5470008B5470008B5470008B5470008AF
:10014000B5470008B5470008B5470008B54700089F
:10015000B5470008B5470008B5470008B54700088F
:10016000B5470008B5470008B5470008B54700087F
:10017000B5470008B5470008B54700080000000073
:08018000B5470008B54700086F
:1001900010B5054C237833B9044B13B10448AFF3C1
:1001A00000800123237010BDDC010020000000004E
:1001B0008404010808B5034B1BB103490348AFF39E
:1001C000008008BD00000000E00100208404010858
:1001D00010F8012B11F8013B012A28BF9A42F7D0F1
:1001E000D01A70470000000000000000000000006E
:1001F00001F0FF01102A2BDB10F0070F08D010F8D8
:10020000013B013A8B422DD010F0070F42B3F6D1DB
:10021000F0B441EA012141EA014122F007047FF0F4
:1002200000070023F0E80256083C85EA010586EA4B
:10023000010685FA47F5A3FA87F586FA47F6A5FA87
:1002400087F68EB9EED1F0BC01F0FF0102F0070293
:1002500032B110F8013B013A83EA010313B1F8D13E
:100260000020704701387047002D06BF354603381F
:10027000073815F0010F07D1013015F4807F02BF58
:10028000013015F4C03F0130F0BC0138704700BFA9
:10029000034613F8012B002AFBD1181A01387047C6
:1002A00081F0004102E000BF83F0004330B54FEA27
:1002B00041044FEA430594EA050F08BF90EA020F94
:1002C0001FBF54EA000C55EA020C7FEA645C7FEA27
:1002D000655C00F0E2804FEA5454D4EB5555B8BF4A
:1002E0006D420CDD2C4480EA020281EA030382EABB
:1002F000000083EA010180EA020281EA0303362D4D
:1003000088BF30BD11F0004F4FEA01314FF4801C1F
:100310004CEA113102D0404261EB410113F0004F31
:100320004FEA03334CEA133302D0524263EB4303E8
:1003300094EA050F00F0A780A4F10104D5F1200E86
:100340000DDB02FA0EFC22FA05F2801841F10001E1
:1003500003FA0EF2801843FA05F359410EE0A5F1B5
:1003600020050EF1200E012A03FA0EFC28BF4CF0E6
:10037000020C43FA05F3C01851EBE37101F000459C
:1003800007D54FF0000EDCF1000C7EEB00006EEBA9
:100390000101B1F5801F1BD3B1F5001F0CD3490833
:1003A0005FEA30004FEA3C0C04F101044FEA44528A
:1003B00012F5800F80F09A80BCF1004F08BF5FEA11
:1003C000500C50F1000041EB045141EA050130BDF1
:1003D0005FEA4C0C404141EB0101013C28BFB1F503
:1003E000801FE9D291F0000F04BF01460020B1FA4E
:1003F00081F308BF2033A3F10B03B3F120020CDA21
:100400000C3208DD02F1140CC2F10C0201FA0CF0FE
:1004100021FA02F10CE002F11402D8BFC2F1200C63
:1004200001FA02F120FA0CFCDCBF41EA0C01904019
:10043000E41AA2BF01EB0451294330BD6FEA040462
:100440001F3C1CDA0C340EDC04F11404C4F120024D
:1004500020FA04F001FA02F340EA030021FA04F35F
:1004600045EA030130BDC4F10C04C4F1200220FAB6
:1004700002F001FA04F340EA0300294630BD21FAF4
:1004800004F0294630BD94F0000F83F4801306BFBA
:1004900081F480110134013D4EE77FEA645C18BFAE
:1004A0007FEA655C29D094EA050F08BF90EA020F45
:1004B00005D054EA000C04BF1946104630BD91EA3D
:1004C000030F1EBF0021002030BD5FEA545C05D140
:1004D0004000494128BF41F0004130BD14F580047F
:1004E0003CBF01F5801130BD01F0004545F0FE41F3
:1004F00041F470014FF0000030BD7FEA645C1ABF28
:10050000194610467FEA655C1CBF0B46024650EA5E
:10051000013406BF52EA033591EA030F41F400218A
:1005200030BD00BF90F0000F04BF0021704730B510
:100530004FF4806404F132044FF000054FF00001E5
:1005400050E700BF90F0000F04BF0021704730B5A6
:100550004FF4806404F1320410F0004548BF40427B
:100560004FF000013EE700BF42004FEAE2014FEAD0
:1005700031014FEA02701FBF12F07F4393F07F4FAB
:1005800081F06051704732F07F4208BF704793F0AE
:100590007F4F04BF41F40021704730B54FF46074C1
:1005A00001F0004521F000411CE700BF50EA0102C4
:1005B00008BF704730B54FF000050AE050EA01026D
:1005C00008BF704730B511F0004502D5404261EBDD
:1005D00041014FF4806404F132045FEA915C3FF41E
:1005E000D8AE4FF003025FEADC0C18BF03325FEABB
:1005F000DC0C18BF033202EBDC02C2F1200300FA6C
:1006000003FC20FA02F001FA03FE40EA0E0021FA90
:1006100002F11444BDE600BF70B54FF0FF0C4CF47E
:10062000E06C1CEA11541DBF1CEA135594EA0C0F30
:1006300095EA0C0F00F0DEF82C4481EA030621EA6B
:100640004C5123EA4C5350EA013518BF52EA0335A6
:1006500041F4801143F4801338D0A0FB02CE4FF058
:100660000005E1FB02E506F00042E0FB03E54FF088
:100670000006E1FB03569CF0000F18BF4EF0010E80
:10068000A4F1FF04B6F5007F64F5407404D25FEA7C
:100690004E0E6D4146EB060642EAC62141EA55512F
:1006A0004FEAC52040EA5E504FEACE2EB4F1FD0C71
:1006B00088BFBCF5E06F1ED8BEF1004F08BF5FEAEF
:1006C000500E50F1000041EB045170BD06F00046A1
:1006D00046EA010140EA020081EA0301B4EB5C044E
:1006E000C2BFD4EB0C0541EA045170BD41F4801146
:1006F0004FF0000E013C00F3AB8014F1360FDEBF6B
:10070000002001F0004170BDC4F10004203C35DA46
:100710000C341BDC04F11404C4F1200500FA05F3C9
:1007200020FA04F001FA05F240EA020001F000426A
:1007300021F0004110EBD37021FA04F642EB0601E0
:100740005EEA430E08BF20EAD37070BDC4F10C040A
:10075000C4F1200500FA04F320FA05F001FA04F2CE
:1007600040EA020001F0004110EBD37041F10001BA
:100770005EEA430E08BF20EAD37070BDC4F12005C5
:1007800000FA05F24EEA020E20FA04F301FA05F22D
:1007900043EA020321FA04F001F0004121FA04F2D5
:1007A00020EA020000EBD3705EEA430E08BF20EAA5
:1007B000D37070BD94F0000F0FD101F000464000DF
:1007C00041EB010111F4801F08BF013CF7D041EA61
:1007D000060195F0000F18BF704703F00046520065
:1007E00043EB030313F4801F08BF013DF7D043EA36
:1007F0000603704794EA0C0F0CEA135518BF95EAEC
:100800000C0F0CD050EA410618BF52EA4306D1D172
:1008100081EA030101F000414FF0000070BD50EA91
:10082000410606BF1046194652EA430619D094EA1B
:100830000C0F02D150EA013613D195EA0C0F05D105
:1008400052EA03361CBF104619460AD181EA030159
:1008500001F0004141F0FE4141F470014FF0000011
:1008600070BD41F0FE4141F4780170BD70B54FF0AC
:10087000FF0C4CF4E06C1CEA11541DBF1CEA13552C
:1008800094EA0C0F95EA0C0F00F0A7F8A4EB05040E
:1008900081EA030E52EA03354FEA013100F0888005
:1008A0004FEA03334FF0805545EA131343EA1263CE
:1008B0004FEA022245EA111545EA10654FEA002683
:1008C0000EF000419D4208BF964244F1FD0404F53C
:1008D000407402D25B084FEA3202B61A65EB030598
:1008E0005B084FEA32024FF480104FF4002CB6EB55
:1008F000020E75EB030E22BFB61A754640EA0C00D5
:100900005B084FEA3202B6EB020E75EB030E22BF14
:10091000B61A754640EA5C005B084FEA3202B6EB55
:10092000020E75EB030E22BFB61A754640EA9C0014
:100930005B084FEA3202B6EB020E75EB030E22BFE4
:10094000B61A754640EADC0055EA060E18D04FEAA2
:10095000051545EA16754FEA06164FEAC30343EA42
:1009600052734FEAC2025FEA1C1CC0D111F4801F0F
:100970000BD141EA00014FF000004FF0004CB6E708
:1009800011F4801F04BF01430020B4F1FD0C88BFA7
:10099000BCF5E06F3FF6AFAEB5EB030C04BFB6EBB2
:1009A000020C5FEA500C50F1000041EB045170BDA5
:1009B0000EF0004E4EEA113114EB5C04C2BFD4EBD2
:1009C0000C0541EA045170BD41F480114FF0000E56
:1009D000013C90E645EA060E8DE60CEA135594EAD2
:1009E0000C0F08BF95EA0C0F3FF43BAF94EA0C0FD5
:1009F0000AD150EA01347FF434AF95EA0C0F7FF44A
:100A000025AF104619462CE795EA0C0F06D152EA9D
:100A100003353FF4FDAE1046194622E750EA410681
:100A200018BF52EA43067FF4C5AE50EA41047FF492
:100A30000DAF52EA43057FF4EBAE12E74FF0FF3CF7
:100A400006E000BF4FF0010C02E000BF4FF0010CC8
:100A50004DF804CD4FEA410C7FEA6C5C4FEA430C41
:100A600018BF7FEA6C5C1BD001B050EA410C0CBF90
:100A700052EA430C91EA030F02BF90EA020F0020F2
:100A8000704710F1000F91EA030F58BF994208BF59
:100A900090422CBFD8176FEAE37040F00100704716
:100AA0004FEA410C7FEA6C5C02D150EA013C07D16D
:100AB0004FEA430C7FEA6C5CD6D152EA033CD3D0B8
:100AC0005DF8040B704700BF8446104662468C46B2
:100AD0001946634600E000BF01B5FFF7B7FF0028E5
:100AE00048BF10F1000F01BD4DF808EDFFF7F4FF0E
:100AF0000CBF012000205DF808FB00BF4DF808ED99
:100B0000FFF7EAFF34BF012000205DF808FB00BFBB
:100B10004DF808EDFFF7E0FF94BF012000205DF8DD
:100B200008FB00BF4DF808EDFFF7CEFF94BF012092
:100B300000205DF808FB00BF4DF808EDFFF7C4FF8B
:100B400034BF012000205DF808FB00BF4FEA410CD4
:100B50007FEA6C5C02D150EA013C0AD14FEA430CB7
:100B60007FEA6C5C02D152EA033C02D14FF00000F4
:100B700070474FF0010070474FEA410212F5001232
:100B800015D211D56FF47873B3EB625212D94FEAD4
:100B9000C12343F0004343EA505311F0004F23FABE
:100BA00002F018BF404270474FF00000704750EA13
:100BB000013005D111F0004008BF6FF000407047D0
:100BC0004FF00000704700BF4FEA4102B2F1E0432E
:100BD00024BFB3F5001CDCF1FE5C0DD901F0004C24
:100BE0004FEAC0024CEA5070B2F1004F40EB830074
:100BF00008BF20F00100704711F0804F21D113F1A0
:100C00003872BCBF01F00040704741F480114FEAD8
:100C10005252C2F11802C2F1200C10FA0CF320FA61
:100C200002F018BF40F001004FEAC1234FEAD3237E
:100C300003FA0CFC40EA0C0023FA02F34FEA4303E8
:100C4000CCE77FEA625307D150EA01331EBF4FF071
:100C5000FE4040F44000704701F0004040F0FE408C
:100C600040F40000704700BF53B94AB9002908BFDB
:100C700000281CBF4FF0FF314FF0FF3000F088B963
:100C8000ADF1080C6DE904CE00F006F8DDF804E0E3
:100C9000DDE9022304B070472DE9F047089D8E4638
:100CA00004468846002B4AD18A42174662D9B2FAD6
:100CB00082F64EB1C6F1200301FA06F820FA03F3DA
:100CC000B74043EA0808B4404FEA174E1FFA87FCC2
:100CD000B8FBFEF1230C0EFB118843EA084301FB2D
:100CE0000CF29A4209D9FB1801F1FF3080F0EA803A
:100CF0009A4240F2E78002393B449A1AA3B2B2FB0F
:100D0000FEF00EFB102243EA024300FB0CFC9C4564
:100D100009D9FB1800F1FF3280F0D6809C4540F2E3
:100D2000D3803B44023840EA0140A3EB0C0300218E
:100D30001DB1F3400022C5E90032BDE8F0878B42C7
:100D400005D90DB1C5E9000100210846F5E7B3FA60
:100D500083F1002946D1734502D3824200F2058116
:100D6000841A6EEB030201209046002DE5D0C5E900
:100D70000048E2E7002A00F09080B2FA82F6002EE6
:100D800040F0A4808A1A030C4FEA174E80B2BCB21E
:100D90000121B2FBFEFC0EFB1C2243EA024304FBD2
:100DA0000CF29A4207D9FB180CF1FF3802D29A4292
:100DB00000F2E080C4469B1AB3FBFEF20EFB123336
:100DC00040EA034302FB04F49C4207D9FB1802F1FA
:100DD000FF3002D29C4200F2CA8002461B1B42EA4C
:100DE0000C40A5E7C1F120068B4022FA06F71F430D
:100DF0000EFA01F420FA06F32EFA06FE4FEA17491E
:100E0000234300FA01F81FFA87FCBEFBF9F01C0C23
:100E100009FB10EE44EA0E4400FB0CFEA64502FA64
:100E200001F209D93C1900F1FF3A80F09C80A645F7
:100E300040F2998002383C44A4EB0E041FFA83FE72
:100E4000B4FBF9F309FB13444EEA044403FB0CFC26
:100E5000A44508D93C1903F1FF3E80F08280A445E7
:100E60007FD9023B3C4443EA0040A4EB0C04A0FBC6
:100E700002EC64457346E14662D35FD05DB1B8EBE6
:100E8000030264EB090404FA06F622FA01F31E4396
:100E9000CC40C5E9006400214FE7B1FBF2FC010C36
:100EA00041EA0E4180B240EA01423B4638463C46A8
:100EB000B846BE462026B1FBF7F1A2EB080241EA94
:100EC0000C4166E7014618E710462CE7C6F1200200
:100ED0002EFA02F3B740B14020FA02F24FEA174E61
:100EE0000A43B3FBFEF8BCB20EFB1833110C41EA07
:100EF000034108FB04F9B04089454FEA104380B232
:100F00003ED9791808F1FF3C01D289451FD8A1EBE1
:100F10000901B1FBFEF909FB04F80EFB191192B2AD
:100F200042EA0142424529D2BA1809F1FF31C4D23E
:100F30004245C2D2A9F102013A44BEE7F0459DD232
:100F4000BEEB02036CEB070C0138E14696E7A7EB1A
:100F500009094944A8F1020CB1FBFEF909FB04F8A8
:100F6000DBE773467FE7504666E70846FDE63B440D
:100F7000023A33E7ACF1020C3B441CE749469CE7DC
:100F8000A1EB0901C446B1FBFEF909FB04F8C4E773
:100F9000704700BF80B500AF0821084806F0D2FFB7
:100FA0000C21064806F0CEFF0021054806F0CAFFD6
:100FB0000421034806F0C6FF00BF80BDB403002033
:100FC0004404002080B400AF0A4B1B6800225A631F
:100FD000084B1B6800229A63074B1B680022DA63E8
:100FE000054B1B6800221A6400BFBD465DF8047BF8
:100FF000704700BF44040020B403002080B487B0D1
:1010000000AF786187ED040AC7ED030A87ED021A85
:1010100079607B693A691A607B69FA685A607B6912
:10102000BA689A607B697A689A6100BF1C37BD46CE
:101030005DF8047B7047000080B500AF03F0BCFB97
:1010400000F0B8F800F0F4FC00F0DCFA00F032FA3E
:1010500000F03CFC00F082FA00F0CAFB00F0DAF984
:1010600000F052FB00F096FC00F0A6F900F000F949
:1010700000F050F900F0B2FC0CF0A8FA01222D4962
:101080002D4808F072FB09F045FB2C4A00212C4842
:1010900009F08AFB03462B4A13602B4A00212B4898
:1010A00009F082FB03462A4A13602A4A00212A4893
:1010B00009F07AFB0346294A1360294A002129488E
:1010C00009F072FB0346284A1360284A0021284889
:1010D00009F06AFB0346274A1360274A0021274884
:1010E00009F062FB0346264A1360264A002126487F
:1010F00009F05AFB0346254A1360254A002125487A
:1011000009F052FB0346244A1360244A0021244874
:1011100009F04AFB0346234A1360234A002123486F
:1011200009F042FB0346224A136009F017FB00BF97
:10113000FDE700BF200600201C050020FC0501087B
:101140008D3100086405002020060108B131000837
:1011500068050020440601086D3200086C05002077
:10116000680601083D350008700500208C0601085E
:10117000F936000874050020B0060108E1380008BF
:1011800078050020D4060108BD3900087C05002040
:10119000F8060108D93B0008800500201C0701085B
:1011A000493D000884050020400701085D3D000816
:1011B0008805002080B594B000AF07F120033022ED
:1011C000002118460DF00DF807F10C0300221A60FB
:1011D0005A609A60DA601A610023BB60224B1B6C74
:1011E000214A43F0805313641F4B1B6C03F0805360
:1011F000BB60BB6800237B601C4B1B681B4A43F42D
:1012000080431360194B1B6803F480437B607B6849
:1012100002233B620123FB6210233B630023BB6379
:1012200007F12003184606F081F80346002B01D091
:1012300002F0C6FD0F23FB6000233B6100237B61AE
:101240000023BB610023FB6107F10C03002118465A
:1012500006F0E4FA0346002B01D002F0B1FD00BF16
:101260005037BD4680BD00BF0038024000700040CE
:1012700080B584B000AF3B4600221A605A609A6085
:10128000DA60214B214A1A601F4B00225A601E4B24
:1012900000229A601C4B00221A611B4B00221A7616
:1012A000194B002283F82020174B0022DA62164BDC
:1012B000174A9A62144B0022DA60134B0122DA615A
:1012C000114B002283F830200F4B01225A610E4847
:1012D00003F0D8FA0346002B01D002F071FD02237F
:1012E0003B6001237B600023BB603B4619460648F8
:1012F00003F0AAFC0346002B01D002F061FD00BF01
:101300001037BD4680BD00BFF8010020002001401D
:101310000100000F80B584B000AF3B4600221A6088
:101320005A609A60DA60214B214A1A601F4B0022F2
:101330005A601E4B00229A601C4B00221A611B4B04
:1013400000221A76194B002283F82020174B002226
:10135000DA62164B174A9A62144B0022DA60134B7A
:101360000122DA61114B002283F830200F4B012259
:101370005A610E4803F086FA0346002B01D002F0B2
:101380001FFD03233B6001237B600023BB603B46C2
:101390001946064803F058FC0346002B01D002F022
:1013A0000FFD00BF1037BD4680BD00BF40020020CA
:1013B000002101400100000F80B500AF124B134A1D
:1013C0001A60114B124A5A600F4B00229A600E4B62
:1013D0000022DA600C4B4FF480421A610A4B002263
:1013E0005A61094B00229A61074B0022DA61064BD1
:1013F00000221A62044804F09DFA0346002B01D033
:1014000002F0DEFC00BF80BD8802002000580040D2
:10141000801A060080B586B000AF07F108030022ED
:101420001A605A609A60DA603B4600221A605A607D
:101430001E4B1F4A1A601D4B00225A601B4B002294
:101440009A601A4B41F61F42DA60184B00221A616B
:10145000164B00225A61154B00229A61134806F080
:10146000EFFB0346002B01D002F0AAFC4FF480539F
:10147000BB6007F1080319460C4807F0A1FA0346C0
:10148000002B01D002F09CFC00233B6000237B601A
:101490003B461946054807F0FDFF0346002B01D0E7
:1014A00002F08EFC00BF1837BD4680BDDC02002074
:1014B0000000014080B58CB000AF07F10C0324227E
:1014C000002118460CF08DFE3B1D00221A605A6068
:1014D000214B4FF080421A601F4B00225A601E4B76
:1014E00000229A601C4B4FF6FF72DA601A4B002202
:1014F0001A61194B00229A610323FB6000233B61B0
:1015000001237B610023BB610A23FB6100233B6253
:1015100001237B620023BB620A23FB6207F10C03F9
:1015200019460D4806F058FF0346002B01D002F083
:1015300047FC00237B600023BB603B1D1946064827
:1015400007F0A8FF0346002B01D002F039FC00BFD2
:101550003037BD4680BD00BF2403002080B58CB06D
:1015600000AF07F10C032422002118460CF039FECD
:101570003B1D00221A605A60204B214A1A601F4B03
:1015800000225A601D4B00229A601C4B4FF6FF72DE
:10159000DA601A4B00221A61184B80229A610323E9
:1015A000FB6000233B6101237B610023BB610A23B5
:1015B000FB6100233B6201237B620023BB620A23A1
:1015C000FB6207F10C0319460C4806F005FF0346C1
:1015D000002B01D002F0F4FB00237B600023BB60F2
:1015E0003B1D1946054807F055FF0346002B01D067
:1015F00002F0E6FB00BF3037BD4680BD6C03002023
:101600000004004080B58EB000AF07F1280300222F
:101610001A605A609A60DA6007F1200300221A60AB
:101620005A603B1D00221A605A609A60DA601A61A3
:101630005A619A61324B334A1A60314B00225A6028
:101640002F4B00229A602E4B41F61F42DA602C4B42
:1016500000221A612A4B00229A61294806F0F0FA0A
:101660000346002B01D002F0ABFB4FF48053BB626A
:1016700007F128031946224807F0A2F90346002B78
:1016800001D002F09DFB1E4806F002FC0346002B31
:1016900001D002F095FB00233B6200237B6207F13F
:1016A00020031946164807F0F5FE0346002B01D02B
:1016B00002F086FB60237B600023BB600223FB609B
:1016C00000237B613B1D082219460D4807F0B6F840
:1016D0000346002B01D002F073FB3B1D0C22194680
:1016E000074807F0ABF80346002B01D002F068FB77
:1016F000034802F0CFFD00BF3837BD4680BD00BFB4
:10170000B40300200008004080B58AB000AF07F1A4
:10171000180300221A605A609A60DA6007F1100319
:1017200000221A605A603B4600221A605A609A6092
:10173000DA602D4B2D4A1A602B4B0F225A602A4B30
:1017400000229A60284B4FF6FF72DA60264B002287
:101750001A61254B00225A61234B00229A612248CC
:1017600006F06EFA0346002B01D002F029FB4FF47D
:101770008053BB6107F1180319461B4807F020F995
:101780000346002B01D002F01BFB174806F0A2FC19
:101790000346002B01D002F013FB00233B61002322
:1017A0007B6107F1100319460F4807F073FE0346EB
:1017B000002B01D002F004FB0A233B6001237B6075
:1017C0000023BB600023FB603B4604221946064809
:1017D00006F098FF0346002B01D002F0F1FA00BF9B
:1017E0002837BD4680BD00BFFC0300200004014037
:1017F00080B58CB000AF07F1200300221A605A6058
:101800009A60DA603B1D00221A605A609A60DA60C2
:101810001A615A619A612B4B2B4A1A60294B00229C
:101820005A60284B00229A60264B41F61F42DA602C
:10183000244B00221A61234B00229A61214806F0B2
:10184000FFF90346002B01D002F0BAFA4FF480539F
:101850003B6207F1200319461A4807F0B1F8034626
:10186000002B01D002F0ACFA164806F011FB03463B
:10187000002B01D002F0A4FA60237B600023BB6040
:101880000223FB6000237B613B1D002219460D48AB
:1018900006F0D4FF0346002B01D002F091FA3B1D65
:1018A00004221946074806F0C9FF0346002B01D061
:1018B00002F086FA034802F0EDFC00BF3037BD4667
:1018C00080BD00BF440400200040014080B58CB0C2
:1018D00000AF07F1200300221A605A609A60DA60B4
:1018E0003B1D00221A605A609A60DA601A615A61E0
:1018F0009A61264B264A1A60244B4FF4A0725A6014
:10190000224B00229A60214B4FF47A72DA601F4B0F
:1019100000221A611D4B80229A611C4806F090F942
:101920000346002B01D002F04BFA4FF480533B6288
:1019300007F120031946154807F042F80346002B2B
:1019400001D002F03DFA114806F0A2FA0346002B3E
:1019500001D002F035FA60237B600023BB600023D6
:10196000FB6000237B613B1D00221946074806F0FF
:1019700065FF0346002B01D002F022FA034802F073
:1019800089FC00BF3037BD4680BD00BF8C040020FD
:101990000018004080B500AF0E4B0F4A1A600D4B87
:1019A0000F225A600B4B00229A600A4B4FF6FF72CF
:1019B000DA60084B00221A61064B00229A61054842
:1019C00006F03EF90346002B01D002F0F9F900BF02
:1019D00080BD00BFD40400200020004080B500AFCF
:1019E000114B124A1A60104B4FF4E1325A600E4B01
:1019F00000229A600C4B0022DA600B4B00221A6125
:101A0000094B0C225A61084B00229A61064B0022B6
:101A1000DA61054807F0CEFD0346002B01D002F045
:101A2000CFF900BF80BD00BF1C050020004800406A
:101A300080B58AB000AF07F1140300221A605A6023
:101A40009A60DA601A6100233B61544B1B6B534A66
:101A500043F010031363514B1B6B03F010033B6106
:101A60003B690023FB604D4B1B6B4C4A43F0010369
:101A700013634A4B1B6B03F00103FB60FB680023FD
:101A8000BB60464B1B6B454A43F002031363434B59
:101A90001B6B03F00203BB60BB6800237B603F4B02
:101AA0001B6B3E4A43F0080313633C4B1B6B03F074
:101AB00008037B607B6800233B60384B1B6B374A15
:101AC00043F004031363354B1B6B03F004033B60CB
:101AD0003B6800224FF48071314803F0F7FE00228A
:101AE0004FF4F0412F4803F0F1FE00224FF48071D3
:101AF0002D4803F0EBFE00224FF480712B4803F0D9
:101B0000E5FE4FF480737B610123BB610023FB6121
:101B100000233B6207F114031946214803F026FC19
:101B20004FF4F0437B610123BB610023FB61002381
:101B30003B6207F1140319461A4803F017FC4FF4EF
:101B400080737B610123BB610023FB6100233B6247
:101B500007F114031946144803F008FC4FF480738E
:101B60007B610123BB610023FB6100233B6207F122
:101B7000140319460D4803F0F9FB01237B61002390
:101B8000BB610023FB6107F114031946044803F00D
:101B9000EDFB00BF2837BD4680BD00BF00380240C6
:101BA00000100240000C0240000802400000024009
:101BB00080B582B000AF0346FB80094806F090F87C
:101BC000074B1B6800225A6200BF054B1B685A6A0C
:101BD000FB889A42F9D300BF00BF0837BD4680BDDD
:101BE000D404002080B582B000AF78607B681E4AC4
:101BF000934235D180211D4803F050FE0346012B4E
:101C000008D10421786806F0A3FF03461A46184B52
:101C10001A6025E08021154803F040FE0346002BA2
:101C20001ED10421786806F093FF03461A46114B33
:101C30001A60104B1A680E4B1B689A4207DD0D4B59
:101C40001A680B4B1B68D31A0B4A136008E0084B49
:101C50001B68C3F58032074B1B681344064A1360A8
:101C600000BF0837BD4680BDFC03002000080240CD
:101C7000C0050020C4050020B805002080B483B052
:101C800000AF0346FB71FB79002B08D00B4B1B68A0
:101C900000225A630A4B1B680022DA6307E0074BF5
:101CA0001B6800229A63064B1B6800221A6400BF5F
:101CB0000C37BD465DF8047B704700BF440400202C
:101CC000B403002080B582B000AF786079680A481C
:101CD000FEF77EFA0346002B09D07A682D210520F5
:101CE0000BF042FC2022796803480CF094FA00BF04
:101CF0000837BD4680BD00BF6806002080B596B09D
:101D000002AF78607B681B68704A934240F0D980CC
:101D10006F4B1B780A2B40F0B9806E4B1B781A462C
:101D20006D4B0021995420226B496C480CF073FADA
:101D3000684B00221A70694B1B78492B31D1674BD5
:101D40005B784C2B08D1664B1A6807F1080365498C
:101D500018460CF0E1F915E0604B5B78522B08D186
:101D6000614B1A6807F10803604918460CF0D4F972
:101D700008E05B4B1A685C4B1B6807F108005C4984
:101D80000CF0CAF907F108031846FEF781FA03467A
:101D90009AB207F108014FF6FF73564807F05AFC54
:101DA0008AE04E4B1B78552B16D1534B1A6807F11E
:101DB0003803524918460CF0AFF907F138031846BA
:101DC000FEF766FA03469AB207F138014FF6FF7341
:101DD000484807F03FFC6FE0404B1B78582B07D07A
:101DE000042247493D480CF004FA0346002B1FD15A
:101DF000444B01221A60444B01221A60FFF7E2F8BB
:101E000001224FF48071414803F060FD41F28830B7
:101E100008F05CFD00224FF480713C4803F056FD51
:101E20004FF6FF730A223A49324807F013FC43E0A9
:101E30002A4B1B78412B1BD1294B1A682A4B196856
:101E40002D4B1B6807F1080000930B4631490CF03D
:101E500063F907F108031846FEF71AFA03469AB227
:101E600007F108014FF6FF73224807F0F3FB23E068
:101E7000244B01221A601948FFF724FF4FF6FF7325
:101E8000052225491B4807F0E5FB15E0114B1B789F
:101E90003E2B10D80F4B1B785A1CD1B20D4A117033
:101EA0001A460B4B19780C4B99540A4B1B781A465F
:101EB000094B0021995400BF012205490D4807F044
:101EC00054FC00BF5037BD4680BD00BF00480040F5
:101ED000200600206406002024060020880600203A
:101EE0009C050020280501089805002038050108F8
:101EF000480501081C050020C805002058050108F8
:101F000060050108A8060020FC0600200000024031
:101F10006805010874050108840501080000000037
:101F2000B0B582B000AF78607B681A783C4B1A700D
:101F30007B6801331B78A3F1300213469B001344E6
:101F40005B001A467B6802331B78303B134407EE74
:101F5000903AF8EEE77A334BC3ED007A7B680533AD
:101F60001B78A3F1300213469B0013445B001A4612
:101F70007B6806331B78303B134407EE903AF8EE4B
:101F8000E77A294BC3ED007A7B6804331B782D2B4D
:101F900007D1254BD3ED007AF1EE677A224BC3EDE2
:101FA000007A7B6808331B78303B642202FB03F124
:101FB0007B6809331B78A3F1300213469B0013445E
:101FC0005B00CA187B680A331B78303B1344184601
:101FD000FEF7B8FA04460D467B680C331B78303B9D
:101FE0001846FEF7AFFA0CA3D3E90023FEF714FB63
:101FF00002460B4620462946FEF758F902460B4694
:1020000010461946FEF7E0FD0346084A136000BF7C
:102010000837BD46B0BD00BF9A9999999999B93FC3
:10202000EC060020F0060020F4060020F806002050
:1020300080B588B000AF07F1080300221A605A602B
:102040009A60DA601A61314803F0B8FD00237B60C2
:102050002F4B1B6B2E4A43F0020313632C4B1B6B5D
:1020600003F002037B607B681123FB6000233B616C
:1020700000237B614FF48063BB6007F108031946BE
:10208000244803F073F94FF40063BB6007F10803C1
:102090001946204803F06AF90023FB6114E001228D
:1020A0004FF480611B4803F011FC012002F0C6FBD5
:1020B00000224FF48061174803F008FC012002F071
:1020C000BDFBFB690133FB61FB69092BE7DD0022E6
:1020D0004FF400610F4803F0F9FB012002F0AEFB62
:1020E00001224FF480610B4803F0F0FB012002F065
:1020F000A5FB01224FF40061064803F0E7FBFFF760
:102100005BF900BF2037BD4680BD00BF88020020BC
:10211000003802400004024080B586B004AFFFF7EB
:1021200087FF0023FB714FF47A730293012301931D
:10213000FB1D009301237F22D021414804F09EF82B
:102140004FF47A73029301230193BB1D0093012383
:102150000022D0213A4804F08BF94FF47A730293AD
:1021600001230193BB1D009301230022D021344899
:1021700004F07EF90346002B0ED1BB79EA2B05D182
:10218000304A23215F200BF0EFF90AE02E4A232189
:102190005F200BF0E9F904E02C4A23215F200BF0CB
:1021A000E3F90123FB714FF47A7302930123019346
:1021B000FB1D009301230622D021214804F05EF884
:1021C0000023FB714FF47A73029301230193FB1DEB
:1021D000009301230722D021194804F04FF800236F
:1021E000FB714FF47A73029301230193FB1D00935B
:1021F00001230322D021124804F040F80223FB718E
:102200004FF47A73029301230193FB1D0093012382
:102210000F22D0210A4804F031F80823FB714FF453
:102220007A73029301230193FB1D00930123312252
:102230001821034804F022F800BF0837BD4680BDCE
:10224000880200208C05010890050108940501080A
:1022500080B487B000AFF86087ED020AC7ED010ACD
:10226000FB681B6907EE903AB8EEE77AD7ED026A91
:10227000D7ED017A66EEA77A77EE277AFDEEE77A58
:1022800017EE902AFB681A61FB681B69B3F5FA7FA9
:1022900003DDFB684FF4FA721A61FB681B6913F5E2
:1022A000FA7F02DAFB683C4A1A61FB68DB6807EEDA
:1022B000903AF8EEE77A97ED027A77EE676A97ED53
:1022C000017AC6EE877AC7ED047AFB6893ED007A4F
:1022D000D7ED027A27EE277AFB68D3ED016AFB6817
:1022E0001B6907EE903AF8EEE77A66EEA77A37EECA
:1022F000277AFB68D3ED026AD7ED047A66EEA77AF7
:1023000077EE277AC7ED057AD7ED057A9FED237A28
:10231000F4EEC77AF1EE10FA01DD214B7B61D7EDC7
:10232000057A9FED207AF4EEC77AF1EE10FA01D526
:102330001D4B7B61D7ED057AFDEEE77A17EE902A0B
:10234000FB685A61D7ED027AFDEEE77A17EE902A24
:10235000FB68DA60FB689B69D7ED057AFDEEE77AEA
:1023600017EE902A1A44FB689A61FB689B69B3F5E3
:10237000E15F03DDFB684FF4E1529A61FB689B6902
:10238000002B02DAFB6800229A6100BF1C37BD46B1
:102390005DF8047B704700BF0CFEFFFF0000E145C5
:1023A0000000E1450000E1C50000E1C500000000BB
:1023B00080B584B000AF87ED030AC7ED020A7860EC
:1023C000396000219FED6A1ADFED690AB7EE080A4D
:1023D0006848FEF713FE00219FED651ADFED640AE1
:1023E000B7EE080A6448FEF709FEFEF7D3FD0120A8
:1023F000FFF744FC614B4FF000021A60604B002273
:102400001A60604B1B68352B0ED03F2000F0F2FDA8
:10241000642008F05BFA4C2000F0ECFD642008F02A
:1024200055FA584B35221A60574B1B68002B02D0C7
:10243000FEF7C8FD8EE0554BD3ED007A97ED037A99
:1024400077EE677A524BC3ED007AD7ED037AB1EE9F
:10245000047A37EE877A4F4BD3ED007A77EE677ABE
:102460004D4BC3ED007A4A4B93ED007A7B6807EE43
:10247000903AF8EEE77A9FED496AC7EE866AF0EE89
:10248000660AB0EE470A3B48FFF7E2FE424B93ED87
:10249000007A7B6807EE903AF8EEE77A9FED3F6AA4
:1024A000C7EE866AF0EE660AB0EE470A3248FFF7DA
:1024B000CFFE304B9A693A4B1B689A632E4B9A6950
:1024C000384B1B681A642E4B1B6807EE903AB8EE27
:1024D000677ADFED356AC7EE267A344BC3ED007AB2
:1024E000324BD3ED007A9FED327A67EE877A234B39
:1024F000C3ED007A2D4BD3ED007AFDEEE77A17EEAF
:10250000902A2C4B1A601D4BD3ED007AFDEEE77A32
:1025100017EE902A284B1A60184BD3ED007A97EDEE
:10252000027AB4EEE77AF1EE10FA0ED83B68002B8F
:1025300008D0012128209FED0A1B9FED0B0B00F016
:1025400047F907E0FEF73EFD04E07B68184608F017
:10255000BDF969E700BF1037BD4680BDAFF300800D
:10256000000000000000F03F0000000000004440B8
:1025700000000000000700201C070020F0050020DC
:10258000E405002000000020FC060020FC050020DF
:102590003C070020000600204007002000007A448D
:1025A00044040020B403002000A0BE44F405002031
:1025B000AE47A341F8050020EC0500200000000014
:1025C00080B584B000AF87ED030AC7ED020A7860DA
:1025D000396000219FED6A1ADFED690AB7EE080A3B
:1025E0006848FEF70BFD00219FED651ADFED640AD8
:1025F000B7EE080A6448FEF701FDFEF7CBFC0120A8
:10260000FFF73CFB614B4FF000021A60604B002269
:102610001A60604B1B68352B0ED0352000F0EAFCA9
:10262000642008F053F94C2000F0E4FC642008F02A
:102630004DF9584B35221A60574B1B68002B02D0BE
:10264000FEF7C0FC8EE0554BD3ED007A97ED037A90
:1026500077EE677A524BC3ED007AD7ED037AB1EE8D
:10266000047A37EE877A4F4BD3ED007A77EE677AAC
:102670004D4BC3ED007A4A4B93ED007A7B6807EE31
:10268000903AF8EEE77A9FED496AC7EE866AF0EE77
:10269000660AB0EE470A3B48FFF7DAFD424B93ED7E
:1026A000007A7B6807EE903AF8EEE77A9FED3F6A92
:1026B000C7EE866AF0EE660AB0EE470A3248FFF7C8
:1026C000C7FD304B9A693A4B1B689A632E4B9A6947
:1026D000384B1B681A642E4B1B6807EE903AB8EE15
:1026E000677ADFED356AC7EE267A344BC3ED007AA0
:1026F000324BD3ED007A9FED327A67EE877A234B27
:10270000C3ED007A2D4BD3ED007AFDEEE77A17EE9C
:10271000902A2C4B1A601D4BD3ED007AFDEEE77A20
:1027200017EE902A284B1A60284BD3ED007A97EDCC
:10273000027AB4EEE77AF1EE10FA0EDB3B68002B7A
:1027400008D0012128209FED0A1B9FED0B0B00F004
:102750003FF807E0FEF736FC04E07B68184608F017
:10276000B5F869E700BF1037BD4680BDAFF3008004
:10277000000000000000F03F0000000000004440A6
:1027800000000000000700201C070020F0050020CA
:10279000E405002000000020FC060020FC050020CD
:1027A0003C070020000600204007002000007A447B
:1027B00044040020B403002000A0BE44F40500201F
:1027C000AE47A341F8050020EC050020BC05002021
:1027D00080B584B000AF87ED030AC7ED020A7860C8
:1027E000396000219FED651ADFED640AB7EE080A33
:1027F0006348FEF703FC00219FED601ADFED5F0ADE
:10280000B7EE080A5F48FEF7F9FBFEF7C3FB0020AE
:10281000FFF734FA5C4B4FF000021A605B4B00226A
:102820001A605B4B1B68352B0ED0352000F0E2FBA5
:10283000642008F04BF84C2000F0DCFB642008F02A
:1028400045F8534B35221A60524B1B68002B02D0BF
:10285000FEF7B8FB8EE0504BD3ED007A97ED037A8C
:1028600077EE677A4D4BC3ED007AD7ED037AB0EE81
:10287000007A37EE877A4A4BD3ED007A77EE677AA3
:10288000484BC3ED007A454B93ED007A7B6807EE29
:10289000903AF8EEE77A9FED446AC7EE866AF0EE6A
:1028A000660AB0EE470A3648FFF7D2FC3D4B93ED7F
:1028B000007A7B6807EE903AF8EEE77A9FED3A6A85
:1028C000C7EE866AF0EE660AB0EE470A2D48FFF7BB
:1028D000BFFC2B4B9A69354B1B685A63294B9A698D
:1028E000334B1B68DA63294B1B6807EE903AB8EE4E
:1028F000677ADFED306AC7EE267A2F4BC3ED007A98
:102900002D4BD3ED007A9FED2D7A67EE877A1E4B23
:10291000C3ED007A284BD3ED007AFDEEE77A17EE8F
:10292000902A274B1A60184BD3ED007AFDEEE77A18
:1029300017EE902A234B1A60134BD3ED007A97EDD4
:10294000027AB4EEE77AF1EE10FA0ED83B68002B6B
:1029500008D001212820F7EE000A9FED1B0AFFF79F
:1029600027FD07E0FEF72EFB04E07B68184607F022
:10297000ADFF69E700BF1037BD4680BD0000000015
:10298000000700201C070020F0050020E4050020BF
:1029900000000020FC060020FC0500203C07002071
:1029A000000600204007002000007A444404002074
:1029B000B403002000A0BE44F4050020AE47A341AC
:1029C000F8050020EC0500200000204280B584B00E
:1029D00000AF87ED030AC7ED020A78603960002175
:1029E0009FED651ADFED640AB7EE080A6348FEF74B
:1029F00005FB00219FED601ADFED5F0AB7EE080AC4
:102A00005F48FEF7FBFAFEF7C5FA0020FFF736F93C
:102A10005C4B4FF000021A605B4B00221A605B4B6C
:102A20001B68352B0ED0352000F0E4FA642007F047
:102A30004DFF4C2000F0DEFA642007F047FF534BB7
:102A400035221A60524B1B68002B02D0FEF7BAFAEF
:102A50008EE0504BD3ED007A97ED037A77EE677AEC
:102A60004D4BC3ED007AD7ED037AB0EE007A37EE26
:102A7000877A4A4BD3ED007A77EE677A484BC3EDFD
:102A8000007A454B93ED007A7B6807EE903AF8EEBA
:102A9000E77A9FED446AC7EE866AF0EE660AB0EE0A
:102AA000470A3648FFF7D4FB3D4B93ED007A7B682D
:102AB00007EE903AF8EEE77A9FED3A6AC7EE866A3B
:102AC000F0EE660AB0EE470A2D48FFF7C1FB2B4B2C
:102AD0009A69354B1B685A63294B9A69334B1B68BB
:102AE000DA63294B1B6807EE903AB8EE677ADFEDA0
:102AF000306AC7EE267A2F4BC3ED007A2D4BD3ED0B
:102B0000007A9FED2D7A67EE877A1E4BC3ED007A2F
:102B1000284BD3ED007AFDEEE77A17EE902A274B8B
:102B20001A60184BD3ED007AFDEEE77A17EE902A83
:102B3000234B1A60234BD3ED007A97ED027AB4EE63
:102B4000E77AF1EE10FA0ED83B68002B08D001218D
:102B50002820F7EE000A9FED1C0AFFF729FC07E08A
:102B6000FEF730FA04E07B68184607F0AFFE69E72D
:102B700000BF1037BD4680BD0000000000070020E8
:102B80001C070020F0050020E405002000000020C4
:102B9000FC060020FC0500203C0700200006002069
:102BA0004007002000007A4444040020B4030020C1
:102BB00000A0BE44F4050020AE47A341F805002064
:102BC000EC050020BC0500200000204280B584B048
:102BD00000AFF86087ED020AC7ED010A39600021F5
:102BE000684805F0AFF9674B1B68FA685A63FB68E1
:102BF0004B2B03DC644B35221A6002E0624B7322DC
:102C00001A6000219FED611ADFED600AB7EE000A3D
:102C10005F48FEF7F3F900219FED5C1ADFED5B0AD8
:102C2000B7EE000A5B48FEF7E9F9FEF7B3F90120B9
:102C3000FFF724F8642007F049FE574B4FF00002DD
:102C40001A60564B4FF000021A60554B1B68002B60
:102C500002D0FEF7B7F990E0504BD3ED007AF0EEDA
:102C6000E77A97ED027A77EE677A4E4BC3ED007AFA
:102C70004C4BD3ED007AFDEEE77A17EE902A4A4BE3
:102C80001A60FB684C2B18DD484BD3ED007A97EDAA
:102C9000017A77EE677A464BC3ED007AD7ED017A79
:102CA000B2EE0E7A37EEC77A424BD3ED007A77EE6A
:102CB000677A414BC3ED007A17E0D7ED017AB2EEA7
:102CC0000E7A37EEC77A394BD3ED007A77EE677A12
:102CD000374BC3ED007A374BD3ED007A97ED017A8D
:102CE00077EE677A344BC3ED007A314B93ED007A7F
:102CF0003B6807EE903AF8EEE77A9FED306AC7EE50
:102D0000866AF0EE660AB0EE470A2148FFF7A0FA9D
:102D1000294B93ED007A3B6807EE903AF8EEE77A9C
:102D20009FED266AC7EE866AF0EE660AB0EE470AA5
:102D30001848FFF78DFA164B9A69214B1B689A6366
:102D4000144B9A691F4B1B681A64164BD3ED007A1B
:102D5000F5EEC07AF1EE10FA0AD8FEF733F94FF427
:102D6000967007F0B3FD074B1B684C225A6304E0D2
:102D70003B68184607F0AAFD67E700BF1037BD465D
:102D800080BD00BF8C040020000000200000000077
:102D9000000700201C070020B4050020AC0500201F
:102DA000FC0600204407002048070020FC05002006
:102DB0003C070020000600204007002000007A4465
:102DC00044040020B403002080B584B000AFF86054
:102DD00087ED020AC7ED010A39600021684805F055
:102DE000B1F8674B1B68FA685A63FB684B2B03DC2E
:102DF000644B35221A6002E0624B73221A60002194
:102E00009FED611ADFED600AB7EE000A5F48FEF73A
:102E1000F5F800219FED5C1ADFED5B0AB7EE000AC2
:102E20005B48FEF7EBF8FEF7B5F80020FEF726FF4B
:102E3000642007F04BFD574B4FF000021A60564BD1
:102E40004FF000021A60554B1B68002B02D0FEF7B2
:102E5000B9F890E0504BD3ED007AF0EEE77A97EDB9
:102E6000027A77EE677A4E4BC3ED007A4C4BD3ED86
:102E7000007AFDEEE77A17EE902A4A4B1A60FB685B
:102E80004C2B18DD484BD3ED007A97ED017A77EEA5
:102E9000677A464BC3ED007AD7ED017AB2EE0E7A2F
:102EA00037EEC77A424BD3ED007A77EE677A414B23
:102EB000C3ED007A17E0D7ED017AB2EE0E7A37EE65
:102EC000C77A394BD3ED007A77EE677A374BC3ED8B
:102ED000007A374BD3ED007A97ED017A77EE677A77
:102EE000344BC3ED007A314B93ED007A3B6807EE2B
:102EF000903AF8EEE77A9FED306AC7EE866AF0EE18
:102F0000660AB0EE470A2148FFF7A2F9294B93ED74
:102F1000007A3B6807EE903AF8EEE77A9FED266A72
:102F2000C7EE866AF0EE660AB0EE470A1848FFF769
:102F30008FF9164B9A69214B1B685A63144B9A6997
:102F40001F4B1B68DA63164BD3ED007AF5EEC07A9F
:102F5000F1EE10FA0AD8FEF735F84FF4967007F044
:102F6000B5FC074B1B684C225A6304E03B681846CB
:102F700007F0ACFC67E700BF1037BD4680BD00BF5F
:102F80008C0400200000002000000000000700204A
:102F90001C070020B4050020AC050020FC06002022
:102FA0004407002048070020FC0500203C070020C3
:102FB000000600204007002000007A44440400205E
:102FC000B403002080B582B000AF78604FF4807108
:102FD000074802F094FC7B68184607F077FC4FF432
:102FE0008071034802F08BFC00BF0837BD4680BDEE
:102FF0000000024080B582B000AF78600021054833
:1030000004F0A0FF034B1B687A685A6300BF0837BF
:10301000BD4680BD8C04002080B483B000AF7860D2
:103020007B681E333C2B00F2A98001A252F823F0EA
:10303000753100087D3100087D3100087D310008C0
:103040007D3100086D3100087D3100087D310008B8
:103050007D3100087D310008653100087D310008B0
:103060007D3100087D3100087D3100085D310008A8
:103070007D3100087D3100087D3100087D31000878
:10308000553100087D3100087D3100087D31000890
:103090007D3100087D3100087D3100087D31000858
:1030A0007D3100087D3100084D3100087D31000878
:1030B0007D3100087D3100087D3100087D31000838
:1030C0007D3100087D3100087D3100087D31000828
:1030D000453100087D3100087D3100087D31000850
:1030E0007D3100083D3100087D3100087D31000848
:1030F0007D3100087D310008353100087D31000840
:103100007D3100087D3100087D3100082D31000837
:103110007D3100087D3100087D3100087D310008D7
:1031200025310008184B73221A6027E0164B6622DF
:103130001A6023E0144B5F221A601FE0124B5A22E0
:103140001A601BE0104B56221A6017E00E4B4C22FF
:103150001A6013E00C4B43221A600FE00A4B3F2227
:103160001A600BE0084B3C221A6007E0064B37223E
:103170001A6003E0044B35221A6000BF00BF0C3711
:10318000BD465DF8047B70473807002080B582B0EB
:1031900000AF78604FF48071044802F0B0FB4FF448
:1031A0007A7007F093FB00BFF4E700BF0010024005
:1031B00080B588B000AF7860224B1A68224B1B683C
:1031C00007F10C0021490AF0A7FF07F10C031A468A
:1031D000052105200AF0C8F91D4B1A6807F10C03F8
:1031E0001C4918460AF098FF07F10C031A460F21F4
:1031F00005200AF0B9F9184B1A68184B1B6807F13B
:103200000C0017490AF088FF07F10C031A46192130
:1032100005200AF0A9F9134B1A6807F10C031249AB
:1032200018460AF079FF07F10C031A4623210520FE
:103230000AF09AF90AF020F8FA2007F047FB00BFDD
:10324000BAE700BF04060020080600209805010820
:10325000EC050020AC0501089C0500209805002025
:10326000B8050108C8050020C805010880B586B06A
:1032700000AF786000237B6100233B610023FB608B
:103280004FF4FA6007F022FB3F20FFF7B3FE4FF444
:10329000FA7007F01BFB4C20FFF7ACFE4FF4FA70FE
:1032A00007F014FB7B69002B04D04FF47A7007F011
:1032B0000DFB24E1924B1B68002B05D0FDF782FE2D
:1032C000642007F003FB1AE10A2007F0FFFA8D4B98
:1032D0001B68002B02D1FDF775FE10E18A4B1B78AD
:1032E000532B08D14FF4FA70FFF76CFE4FF4FA60DD
:1032F00007F0ECFAF1E0844B1B78462B06D14FF433
:10330000FA60FFF75FFE01237B61E6E07E48FEF78F
:1033100007FE7E4BD3ED007AF5EE407AF1EE10FA1F
:103320005CD17B4B1B78772B45D0772B00F3D58076
:10333000742B1AD0742B00F3D080542B02D0572B4F
:1033400026D0CAE0734BD3ED007AB2EE047A77EE62
:10335000877A714B93ED007A00212820F0EE470A1E
:10336000B0EE670AFFF724F8B7E06A4BD3ED007AB6
:10337000B2EE047A77EE877A674B93ED007A0021FC
:103380002820F0EE470AB0EE670AFFF721FAA4E022
:10339000604BD3ED007AB2EE047A77EE877A5E4B1B
:1033A00093ED007A00212820F0EE470AB0EE670A7C
:1033B000FFF706F991E0574BD3ED007AB2EE047AAD
:1033C00077EE877A544B93ED007A00212820F0EEB7
:1033D000470AB0EE670AFFF7F9FA7EE04B4BD3EDF0
:1033E000007AF5EEC07AF1EE10FA35DD474BD3EDF9
:1033F000007AB3EE0E7AF4EEC77AF1EE10FA02DD3F
:10340000424B464A1A60414BD3ED007AFDEEE77A13
:1034100017EE900AFFF700FE3D4B1B78542B0DD1A1
:103420003F4B1B683C4AD2ED007A2821DFED3D0A74
:10343000B0EE670A1846FFF7C9FB4EE0384B1B6831
:10344000354AD2ED007A2821DFED360AB0EE670A60
:103450001846FFF7B9FC40E02C4BD3ED007ABBEEE9
:103460000E7AF4EEC77AF1EE10FA02D5274B2E4A07
:103470001A60264BD3ED007AFDEEE77A17EE900A3C
:10348000FFF7CAFD264B1B681A46284928480AF050
:1034900043FE274A232146200AF066F81C4B1B787E
:1034A000542B0DD11E4B1B681B4AD2ED007A2821EC
:1034B000DFED1C0AB0EE670A1846FFF787FB0CE049
:1034C000174B1B68144AD2ED007A2821DFED150A4C
:1034D000B0EE670A1846FFF777FC164914480AF061
:1034E0001BFE1348FCF7D4FE03469AB24FF6FF7357
:1034F0000F49114806F0AEF8024B00221A60D1E6DF
:10350000FC060020A806002088060020F406002003
:10351000EC060020F0060020F80600200000F04134
:1035200038070020000048420000F0C1D005010823
:10353000AC060020D40501081C05002080B592B01F
:1035400000AF78600421624804F0FCFC0021604870
:1035500004F0F8FC5E4B1B685B6A7B6401F062F967
:1035600038645C4BFB6301F05DF902463B6CD31A97
:10357000282BF8D9564B1B685B6ABB63544B1B68FE
:103580001B6803F01003102B12D1BA6B7B6C9A42AC
:1035900005DA7A6CBB6BD31A4F4A13601AE0BB6B27
:1035A000C3F57F43FF337A6C13444B4A136011E039
:1035B000BA6B7B6C9A4205DDBA6B7B6CD31A464AB8
:1035C000136007E07B6CC3F57F43FF33BA6B134492
:1035D000414A1360404B1B68FA2B06DD3E4B00222C
:1035E0001A603E4B4FF000021A603D4B1B683A4A8E
:1035F000126813443A4A1360374B1A6813469B000B
:1036000013449A001344344A1360334B1B6807EE8B
:10361000903AB8EEE77AF3EE066AC7EE267A314BB7
:10362000C3ED007A2C4B1B6807EE903AB8EEE77AB0
:10363000F7EE006AD7ED0F7A76EEE77A27EE277A73
:10364000294B1B6807EE903AF8EEE76AD7ED0F7A40
:1036500066EEA77A77EE277A204BC3ED007A1F4BF0
:10366000D3ED007AFDEEE77A17EE902A1E4B1A6032
:103670001A4B93ED007AF3EE066AC7EE267A1B4BDF
:10368000C3ED007A194BD3ED007AFDEEE77A17EE21
:10369000902A174B1A60134BD3ED007AFDEEE77AB0
:1036A00017EE902A134B1A60094B1B681B6803F036
:1036B0001003102B0CBF01230023DBB2FB86044B4D
:1036C0001B685B6A7B6401F0ADF838644BE700BFB0
:1036D000240300203333733FD0050020E005002091
:1036E000E805002000060020D80500201006002074
:1036F000180600200806002080B5A2B000AF786050
:1037000004216C4804F01EFC00216A4804F01AFCF5
:10371000684B1B685B6AC7F8843001F083F8C7F810
:103720008000654BFB6701F07DF80246D7F88030DA
:10373000D31A282BF7D95F4B1B685B6ABB675D4BBD
:103740001B681B6803F01003102B15D1BA6FD7F854
:1037500084309A4206DAD7F88420BB6FD31A574ACE
:1037600013601EE0BB6FC3F57F43FF33D7F884209F
:103770001344524A136014E0BA6FD7F884309A4267
:1037800006DDBA6FD7F88430D31A4C4A136008E0CC
:10379000D7F88430C3F57F43FF33BA6F1344474AE9
:1037A0001360464B1B68FA2B06DD444B00221A605F
:1037B000434B4FF000021A60424B1B683F4A1268AD
:1037C0001344404A13603D4B1A6813469B00134450
:1037D0009A001344394A1360384B1B6807EE903A3D
:1037E000B8EEE77AF3EE066AC7EE267A364BC3EDFB
:1037F000007A324B1B6807EE903AB8EEE77AF7EEA4
:10380000006AD7ED1F7A76EEE77A27EE277A2F4BFC
:103810001B6807EE903AF8EEE76AD7ED1F7A66EE7E
:10382000A77A77EE277A264BC3ED007A244BD3EDA7
:10383000007AFDEEE77A17EE902A244B1A60204BAF
:1038400093ED007AF3EE066AC7EE267A204BC3EDBD
:10385000007A1F4BD3ED007AFDEEE77A17EE902A3F
:103860001C4B1A60184BD3ED007AFDEEE77A17EE89
:10387000902A194B1A600F4B1B681B6803F010034A
:10388000102B0CBF01230023DBB2A7F87630B7F86A
:103890007630002B0CBF01230023DBB2A7F8763073
:1038A000044B1B685B6AC7F8843000F0BBFFC7F8A5
:1038B000800038E76C0300203333733FCC050020D1
:1038C000DC050020E4050020FC050020D4050020D4
:1038D0000C06002014060020040600200000000052
:1038E00080B588B000AF786000224FF480712C481A
:1038F00001F0ECFF322006F0E9FF01224FF4807165
:10390000274801F0E3FF0A20FEF752F900224FF4A6
:103910008071234801F0DAFF322006F0D7FF04213E
:10392000204804F031FC1F48FEF75CF91E4B1B6871
:103930001846FCF707FE18A3D3E90023FCF76CFE3A
:1039400002460B4610461946FDF73EF90346174A54
:103950001360164BD3ED007A9FED157AF4EEC77A1B
:10396000F1EE10FA02DD114B124A1A600F4BD3ED43
:10397000007AF5EEC07AF1EE10FA03D50B4B4FF05A
:1039800000021A60094BD3ED007AFDEEE77A17EEDC
:10399000902A094B1A60A7E7006F8104C58F913FF9
:1039A00000080240FC030020B8050020BC050020F0
:1039B0000000C8430000C843C805002080B592B08D
:1039C00002AF786037237B73774BFB6200237B85E4
:1039D0000A237B624FF000024FF00003C7E90E2379
:1039E0004FF000024FF00003C7E9062300237B637A
:1039F000FEF792FB642006F069FF00F013FF3863C6
:103A000033E0012006F062FF07F10D024FF47A73F4
:103A100000930123D021654802F000F907F1080264
:103A20004FF47A7300930223D021604802F0F4F936
:103A30003B7A1BB21B021AB27B7A1BB21343FB8187
:103A4000B7F90E301846FCF77DFD02460B46D7E964
:103A50000E01FCF72BFC02460B46C7E90E2300F0D3
:103A6000E1FE38637B6B01337B637B6BB3F57A7F5D
:103A7000C7DB786BFCF766FD02460B46D7E90E0103
:103A8000FCF7F4FE02460B46C7E90E2300F0CAFE1F
:103A9000386307F10D024FF47A7300930123D021AC
:103AA000424802F0BBF80346002B04D0404A0521EF
:103AB000052009F059FD07F108024FF47A730093CD
:103AC0000223D021394802F0A7F90346002B04D085
:103AD000384A0521052009F047FD3B7A1BB21B023D
:103AE0001AB27B7A1BB213431AB2334B1A80324B91
:103AF000B3F900301846FCF725FDD7E90E23FCF793
:103B0000D3FB02460B4610461946FDF735F803462F
:103B10001AB2294B1A80284BB3F9003007EE903ABD
:103B2000B8EEE77ADFED256AC7EE267A244BC3EDBF
:103B3000007A234BD3ED007AFDEEE77A17EE902A58
:103B4000204B1A6000F06EFE78617A693B6BD31AE5
:103B500007EE903AB8EE677ADFED1B6AC7EE267A79
:103B6000C7ED047A164B93ED007AD7ED047A27EE71
:103B7000277A164BD3ED007A77EE277A144BC3EDF4
:103B8000007A134B1B68114A1360114BD3ED007A76
:103B9000FDEEE77A17EE902A0E4B1A607B693B63C5
:103BA000012006F093FE74E76666663F88020020F7
:103BB000DC050108E0050108A00500200000034322
:103BC000A4050020A805002000007A44B4050020C8
:103BD000AC050020B005002080B582B000AF786051
:103BE000494800F093FE1421474800F094FF4648EE
:103BF00001F01CF803469AB2444B1A80424800F088
:103C000057FF424B1B8807EE903AF8EEE77A9FED9C
:103C1000407A37EE877ADFED3F6AC6EE877A9FED0E
:103C20003E7A77EEC77A3D4BC3ED007A3B4BD3ED3E
:103C3000007A9FED3B7AF4EEC77AF1EE10FA02DDDE
:103C4000364B384A1A60354BD3ED007AF5EEC07A20
:103C5000F1EE10FA03D5314B4FF000021A602F4BF2
:103C6000D3ED007AFDEEE77A17EE902A2E4B1A601C
:103C70002E4800F04BFE14212C4800F04CFF2B483E
:103C800000F0D4FF03469AB2294B1A80274800F06F
:103C90000FFF274B1B8807EE903AF8EEE77A9FED6F
:103CA000257A37EE877ADFED246AC6EE877A9FEDB4
:103CB000237A77EEC77A224BC3ED007A204BD3EDFF
:103CC000007A9FED177AF4EEC77AF1EE10FA02DD72
:103CD0001B4B144A1A601A4BD3ED007AF5EEC07AEA
:103CE000F1EE10FA03D5164B4FF000021A60144B98
:103CF000D3ED007AFDEEE77A17EE902A114B1A60A9
:103D0000C82006F0E3FD6BE7F801002094050020D1
:103D10003F354B4268231E47166A95408C050020AC
:103D200000002042000020429C05002040020020AC
:103D30009605002023B3DB42F68E2D473815B74099
:103D4000900500209805002080B594B000AF786001
:103D50003C23FB64C82006F0B9FDFBE780B584B0C6
:103D600000AF78600A4B1B685B6AC3F57F43FF3383
:103D7000FB60084B1B685B6ABB60FA68BB68D31AC0
:103D8000054A1360142006F0A1FD00BFEAE700BF5A
:103D90006C030020240300201C06002080B582B0A4
:103DA00000AF78607B681B68044A934201D100F041
:103DB00025FD00BF0837BD4680BD00BF0010004094
:103DC00080B400AF72B600BF00BFFDE780B582B01F
:103DD00000AF00237B60124B5B6C114A43F48043BD
:103DE00053640F4B5B6C03F480437B607B68002360
:103DF0003B600B4B1B6C0A4A43F080531364084B27
:103E00001B6C03F080533B603B6800220F216FF076
:103E1000010001F0EFF900BF0837BD4680BD00BFCB
:103E20000038024080B58CB000AF786007F11C0309
:103E300000221A605A609A60DA601A617B681B6817
:103E40002E4A934228D10023BB612D4B5B6C2C4A38
:103E500043F4807353642A4B5B6C03F48073BB613F
:103E6000BB6900237B61264B1B6B254A43F0010392
:103E70001363234B1B6B03F001037B617B690423FA
:103E8000FB6103233B6200237B6207F11C0319469D
:103E90001C4801F06BFA2CE07B681B681A4A9342BD
:103EA00027D100233B61164B5B6C154A43F400732A
:103EB0005364134B5B6C03F400733B613B69002359
:103EC000FB600F4B1B6B0E4A43F0010313630C4B5B
:103ED0001B6B03F00103FB60FB680823FB610323FA
:103EE0003B6200237B6207F11C031946054801F081
:103EF0003DFA00BF3037BD4680BD00BF0020014005
:103F000000380240000002400021014080B58AB024
:103F100000AF786007F1140300221A605A609A60BB
:103F2000DA601A617B681B68194A93422CD100231E
:103F30003B61184B1B6B174A43F002031363154B8D
:103F40001B6B03F002033B613B694FF440637B61F1
:103F50001223BB610023FB6103233B6204237B62CA
:103F600007F1140319460C4801F000FA0023FB6026
:103F7000084B1B6C074A43F480031364054B1B6C0E
:103F800003F48003FB60FB6800BF2837BD4680BD9B
:103F900000580040003802400004024080B582B062
:103FA00000AF78607B681B680B4A93420FD10B4BC4
:103FB0001B6C0A4A23F4800313644FF480610848A1
:103FC00001F070FB4FF40061054801F06BFB00BF8E
:103FD0000837BD4680BD00BF005800400038024091
:103FE0000004024080B58EB000AF786007F1240372
:103FF00000221A605A609A60DA601A617B681B6856
:104000004F4A93420ED100233B624E4B5B6C4D4AAC
:1040100043F0010353644B4B5B6C03F001033B62C1
:104020003B6A88E07B681B68474A93420ED10023B5
:10403000FB61444B1B6C434A43F004031364414B44
:104040001B6C03F00403FB61FB6974E07B681B6875
:104050003E4A934234D10023BB613A4B5B6C394AF0
:1040600043F002035364374B5B6C03F00203BB6104
:10407000BB6900237B61334B1B6B324A43F0040363
:104080001363304B1B6B03F004037B617B6980235C
:104090007B620223BB620023FB6200233B6303239A
:1040A0007B6307F124031946294801F05FF90022D8
:1040B00005212E2001F09EF82E2001F0B7F83AE0FD
:1040C0007B681B68234A93420ED100233B611D4B42
:1040D0005B6C1C4A43F4803353641A4B5B6C03F4EF
:1040E00080333B613B6926E07B681B681A4A934238
:1040F0000ED10023FB60134B1B6C124A43F04003AC
:104100001364104B1B6C03F04003FB60FB6812E070
:104110007B681B68114A93420DD10023BB60094B99
:104120001B6C084A43F480731364064B1B6C03F446
:104130008073BB60BB6800BF3837BD4680BD00BF21
:104140000000014000380240000800400004014027
:1041500000080240004001400018004000200040DC
:1041600080B58CB000AF786007F11C0300221A60A4
:104170005A609A60DA601A617B681B68B3F1804FFD
:104180004BD10023BB613F4B1B6C3E4A43F0010304
:1041900013643C4B1B6C03F00103BB61BB69002340
:1041A0007B61384B1B6B374A43F001031363354B7C
:1041B0001B6B03F001037B617B6900233B61314B87
:1041C0001B6B304A43F0020313632E4B1B6B03F04F
:1041D00002033B613B694FF40043FB6102233B62F6
:1041E00000237B620023BB620123FB6207F11C03F7
:1041F0001946254801F0BAF80823FB6102233B6207
:1042000000237B620023BB620123FB6207F11C03D6
:1042100019461E4801F0AAF830E07B681B681C4A6A
:1042200093422BD10023FB60164B1B6C154A43F0C5
:1042300002031364134B1B6C03F00203FB60FB6867
:104240000023BB600F4B1B6B0E4A43F0020313634A
:104250000C4B1B6B03F00203BB60BB683023FB619C
:1042600002233B6200237B620023BB620223FB62CA
:1042700007F11C031946054801F078F800BF3037F4
:10428000BD4680BD003802400000024000040240EC
:104290000004004080B58AB000AF786007F11403D5
:1042A00000221A605A609A60DA601A617B681B68A3
:1042B000374A93421FD100233B61364B1B6B354A73
:1042C00043F002031363334B1B6B03F002033B61A8
:1042D0003B694FF440737B610223BB610023FB61A8
:1042E00000233B6202237B6207F1140319462A482C
:1042F00001F03CF847E07B681B68284A93421ED1D6
:104300000023FB60234B1B6B224A43F01003136313
:10431000204B1B6B03F01003FB60FB6860237B6189
:104320000223BB610023FB6100233B6203237B620A
:1043300007F1140319461A4801F018F823E07B68C6
:104340001B68184A93421ED10023BB60114B1B6BA4
:10435000104A43F0020313630E4B1B6B03F002037E
:10436000BB60BB684FF480437B610223BB610023C9
:10437000FB6100233B6209237B6207F114031946AA
:10438000054800F0F3FF00BF2837BD4680BD00BFE1
:104390000008004000380240000402400040014094
:1043A000001002400018004080B58AB000AF78606D
:1043B00007F1140300221A605A609A60DA601A61E9
:1043C0007B681B681D4A934234D100233B611C4B20
:1043D0001B6C1B4A43F480231364194B1B6C03F4BE
:1043E00080233B613B690023FB60154B1B6B144A28
:1043F00043F008031363124B1B6B03F00803FB60CD
:10440000FB684FF440737B610223BB610023FB61B7
:1044100003233B6207237B6207F114031946094813
:1044200000F0A4FF00220521272000F0E3FE272052
:1044300000F0FCFE00BF2837BD4680BD00480040AC
:1044400000380240000C024080B58EB000AF7860AA
:104450000023FB620023BB620023FB60334B1B6C19
:10446000324A43F010031364304B1B6C03F010030B
:10447000FB60FB6807F1100207F1140311461846B0
:1044800003F0ACFB3B6AFB62FB6A002B03D103F039
:104490007DFB786304E003F079FB03465B007B63FC
:1044A0007B6B234AA2FB03239B0C013BBB62214B8A
:1044B000214A1A601F4B40F2E732DA601D4ABB6A9C
:1044C00053601C4B00221A611A4B00229A60194B50
:1044D00000229A61174803F0B3FB034687F8333094
:1044E00097F83330002B1BD1124803F061FC0346D0
:1044F00087F8333097F83330002B11D1362000F095
:1045000095FE7B680F2B08D800227968362000F0D2
:1045100071FE0A4A7B68136002E0012387F833309A
:1045200097F8333018463837BD4680BD0038024012
:1045300083DE1B434C0700200010004008000020D1
:1045400080B400AF00BFFDE780B400AF00BFFDE75F
:1045500080B400AF00BFFDE780B400AF00BFFDE74F
:1045600080B400AF00BFFDE780B400AF00BFBD4620
:104570005DF8047B7047000080B500AF024805F08D
:1045800019F900BF80BD00BF1C05002080B500AF39
:10459000024803F0C7FF00BF80BD00BFFC0300203E
:1045A00080B500AF024803F0BDFF00BF80BD00BF73
:1045B0004C07002080B400AF01231846BD465DF8CB
:1045C000047B704780B582B000AF7860396009F035
:1045D000DDFE034616221A604FF0FF3318460837F7
:1045E000BD4680BD80B582B000AF78604FF0FF312E
:1045F0007868FFF7E7FF00BFFDE780B586B000AF42
:10460000F860B9607A6000237B610AE0AFF3008054
:104610000146BB685A1CBA60CAB21A707B69013382
:104620007B617A697B689A42F0DB7B6818461837B1
:10463000BD4680BD80B586B000AFF860B9607A60D5
:1046400000237B6109E0BB685A1CBA601B781846DE
:10465000AFF300807B6901337B617A697B689A42A2
:10466000F1DB7B6818461837BD4680BD80B483B047
:1046700000AF78604FF0FF3318460C37BD465DF849
:10468000047B704780B483B000AF786039603B68CA
:104690004FF400525A60002318460C37BD465DF8AF
:1046A000047B704780B483B000AF78600123184664
:1046B0000C37BD465DF8047B704780B485B000AF11
:1046C000F860B9607A60002318461437BD465DF87B
:1046D000047B704780B586B000AF7860144A154BF4
:1046E000D31A7B617B693B61134B1B68002B02D1A2
:1046F000114B124A1A60104B1A687B6813443A69CE
:104700009A4207D209F042FE03460C221A604FF08B
:10471000FF3309E0084B1B68FB60074B1A687B6896
:104720001344054A1360FB6818461837BD4680BD20
:10473000000002200004000094070020D056002052
:1047400080B400AF064BD3F88830054A43F47003B9
:10475000C2F8883000BFBD465DF8047B704700BFDB
:1047600000ED00E0DFF834D0FFF7EAFF0C480D4918
:104770000D4A002302E0D458C4500433C4188C42BC
:10478000F9D30A4A0A4C002301E013600432A24222
:10479000FBD309F001FEFCF74FFC7047000002203C
:1047A00000000020DC01002064150108DC0100206D
:1047B000D0560020FEE7000080B500AF0E4B1B680E
:1047C0000D4A43F4007313600B4B1B680A4A43F411
:1047D00080631360084B1B68074A43F480731360BF
:1047E000032000F0FCFC0F20FFF72EFEFFF7EEFA8F
:1047F0000023184680BD00BF003C024080B400AFDB
:10480000064B1B781A46064B1B681344044A136078
:1048100000BFBD465DF8047B704700BF0C00002060
:104820009807002080B400AF034B1B681846BD46B4
:104830005DF8047B704700BF9807002080B584B006
:1048400000AF7860FFF7EEFFB8607B68FB60FB6845
:10485000B3F1FF3F05D00A4B1B781A46FB6813449F
:10486000FB6000BFFFF7DEFF0246BB68D31AFA68A1
:104870009A42F7D800BF00BF1037BD4680BD00BFC9
:104880000C00002080B584B000AF78600023FB737B
:104890007B68002B01D1012333E07B681B6C002B6C
:1048A00009D17868FFF7BEFA7B6800225A647B68FA
:1048B000002283F83C207B681B6C03F01003002B64
:1048C00018D17B681B6C23F4885323F0020343F058
:1048D00002027B681A64786800F0D8FA7B680022CC
:1048E0005A647B681B6C23F0030343F001027B686E
:1048F0001A6401E00123FB737B68002283F83C20EB
:10490000FB7B18461037BD4680BD000080B485B0E3
:1049100000AF78600023BB607B6893F83C30012BCC
:1049200001D10223B2E07B68012283F83C207B683E
:104930001B689B6803F00103012B18D07B681B6880
:104940009A687B681B6842F001029A60524B1B68B0
:10495000524AA2FB03239A0C13465B001344BB602C
:1049600002E0BB68013BBB60BB68002BF9D17B68F0
:104970001B689B6803F00103012B7AD17B681B6CD9
:1049800023F4E06323F0010343F480727B681A642C
:104990007B681B685B6803F48063002B07D07B682F
:1049A0001B6C23F4405343F480527B681A647B6889
:1049B0001B6C03F48053B3F5805F06D17B685B6C9E
:1049C00023F006027B685A6402E07B6800225A6486
:1049D0007B68002283F83C20314BFB607B681B68BE
:1049E0006FF022021A60FB685B6803F01F03002B64
:1049F0002AD17B681B682B4A934215D07B681B68C1
:104A0000294A934205D1264B5B6803F01F03002B14
:104A10000AD07B681B68254A934236D1204B5B68DD
:104A200003F01003002B30D17B681B689B6803F0F8
:104A30004053002B29D17B681B689A687B681B68F0
:104A400042F080429A6020E07B681B68154A9342DE
:104A50001BD17B681B689B6803F04053002B14D16B
:104A60007B681B689A687B681B6842F080429A608A
:104A70000BE07B681B6C43F010027B681A647B6858
:104A80005B6C43F001027B685A64002318461437BC
:104A9000BD465DF8047B70470400002083DE1B43A5
:104AA000002301400020014000210140002201407C
:104AB00080B483B000AF78607B6893F83C30012B02
:104AC00001D1022321E07B68012283F83C207B682E
:104AD0001B689A687B681B6822F001029A607B68F9
:104AE0001B689B6803F00103002B09D17B681B6CDA
:104AF00023F4885323F0010343F001027B681A6416
:104B00007B68002283F83C20002318460C37BD4602
:104B10005DF8047B704780B584B000AF7860396081
:104B20000023FB607B681B689B6803F48063B3F51C
:104B3000806F13D17B681B689B6803F48073B3F5A7
:104B4000807F0BD17B681B6C43F020027B681A646A
:104B50007B68002283F83C20012363E0FFF762FEBC
:104B6000F86021E03B68B3F1FF3F1DD03B68002BAC
:104B700007D0FFF757FE0246FB68D31A3A689A42FD
:104B800012D27B681B681B6803F00203022B0BD058
:104B90007B681B6C43F004027B681A647B6800220C
:104BA00083F83C2003233DE07B681B681B6803F00F
:104BB0000203022BD6D17B681B686FF012021A60C9
:104BC0007B681B6C43F400727B681A647B681B680B
:104BD0009B6803F04053002B23D17B681B7E002B86
:104BE0001FD17B681B68DB6A03F47003002B06D0BF
:104BF0007B681B689B6803F48063002B11D17B6882
:104C00001B6C23F480727B681A647B681B6C03F452
:104C10008053002B05D17B681B6C43F001027B683D
:104C20001A64002318461037BD4680BD80B483B097
:104C300000AF78607B681B68DB6C18460C37BD469C
:104C40005DF8047B7047000080B485B000AF7860E9
:104C500039600023BB607B6893F83C30012B01D1A5
:104C6000022305E17B68012283F83C203B681B6836
:104C7000092B25D97B681B68D9683B681B689BB2E8
:104C80001A4613465B0013441E3B072202FA03F345
:104C9000DA437B681B680A40DA607B681B68D96866
:104CA0003B689A683B681B689BB2184603465B00EA
:104CB00003441E3B9A407B681B680A43DA6022E08B
:104CC0007B681B6819693B681B689BB21A461346D0
:104CD0005B001344072202FA03F3DA437B681B6884
:104CE0000A401A617B681B6819693B689A683B68CF
:104CF0001B689BB2184603465B0003449A407B68DE
:104D00001B680A431A613B685B68062B24D87B68E2
:104D10001B68596B3B685A6813469B001344053B5C
:104D20001F2202FA03F3DA437B681B680A405A63C6
:104D30007B681B68596B3B681B689BB218463B68D5
:104D40005A6813469B001344053B00FA03F27B6844
:104D50001B680A435A634CE03B685B680C2B24D801
:104D60007B681B68196B3B685A6813469B001344A9
:104D7000233B1F2202FA03F3DA437B681B680A40D5
:104D80001A637B681B68196B3B681B689BB21846EB
:104D90003B685A6813469B001344233B00FA03F216
:104DA0007B681B680A431A6323E07B681B68D96A27
:104DB0003B685A6813469B001344413B1F2202FA8A
:104DC00003F3DA437B681B680A40DA627B681B687E
:104DD000D96A3B681B689BB218463B685A68134601
:104DE0009B001344413B00FA03F27B681B680A43B3
:104DF000DA62224BFB607B681B68214A934209D12F
:104E00003B681B68122B05D1FB685B6843F480028A
:104E1000FB685A607B681B68194A934223D13B6840
:104E20001B68102B03D03B681B68112B1BD1FB6840
:104E30005B6843F40002FB685A603B681B68102BF8
:104E400011D1104B1B68104AA2FB03239A0C134686
:104E50009B0013445B00BB6002E0BB68013BBB608E
:104E6000BB68002BF9D17B68002283F83C2000232B
:104E700018461437BD465DF8047B70470023014097
:104E8000002001400400002083DE1B4380B485B075
:104E900000AF7860794BFB60FB685B6823F44032BD
:104EA000FB685A60FB685A687B685B681A43FB685A
:104EB0005A607B681B685A687B681B6822F48072A2
:104EC0005A607B681B6859687B681B691A027B689B
:104ED0001B680A435A607B681B685A687B681B68BA
:104EE00022F040725A607B681B6859687B689A6838
:104EF0007B681B680A435A607B681B689A687B68FA
:104F00001B6822F400629A607B681B6899687B6862
:104F1000DA687B681B680A439A607B689B6A584A18
:104F2000934222D07B681B689A687B681B6822F0DA
:104F300070629A607B681B6899687B689A6A7B6874
:104F40001B680A439A607B681B689A687B681B68C9
:104F500022F040529A607B681B6899687B68DA6A25
:104F60007B681B680A439A600FE07B681B689A683D
:104F70007B681B6822F070629A607B681B689A6885
:104F80007B681B6822F040529A607B681B689A68B5
:104F90007B681B6822F002029A607B681B68996834
:104FA0007B681B7E5A007B681B680A439A607B689B
:104FB00093F82030002B1BD07B681B685A687B68F5
:104FC0001B6842F400625A607B681B685A687B6801
:104FD0001B6822F460425A607B681B6859687B68D2
:104FE0005B6A013B5A037B681B680A435A6007E00F
:104FF0007B681B685A687B681B6822F400625A60F1
:105000007B681B68DA6A7B681B6822F47002DA62CC
:105010007B681B68D96A7B68DB69013B1A057B6882
:105020001B680A43DA627B681B689A687B681B68A6
:1050300022F400729A607B681B6899687B6893F819
:1050400030305A027B681B680A439A607B681B6891
:105050009A687B681B6822F480629A607B681B6890
:1050600099687B685B699A027B681B680A439A604F
:1050700000BF1437BD465DF8047B70470023014034
:105080000100000F80B485B000AF78607B6803F04A
:105090000703FB600C4BDB68BB60BA684FF6FF038D
:1050A0001340BB60FB681A02BB68134343F0BF6345
:1050B00043F40033BB60044ABB68D36000BF1437BD
:1050C000BD465DF8047B704700ED00E080B400AFA2
:1050D000044BDB681B0A03F007031846BD465DF866
:1050E000047B704700ED00E080B483B000AF03465E
:1050F000FB7197F90730002B0BDBFB7903F01F02E4
:10510000074997F907305B09012000FA02F241F8DC
:10511000232000BF0C37BD465DF8047B704700BFFD
:1051200000E100E080B483B000AF03463960FB715A
:1051300097F90730002B0ADB3B68DAB20C4997F984
:1051400007301201D2B20B4483F800230AE03B6817
:10515000DAB20849FB7903F00F03043B1201D2B223
:105160000B441A7600BF0C37BD465DF8047B7047D0
:1051700000E100E000ED00E080B489B000AFF8602D
:10518000B9607A60FB6803F00703FB61FB69C3F158
:105190000703042B28BF0423BB61FB690433062BE0
:1051A00002D9FB69033B00E000237B614FF0FF3233
:1051B000BB6902FA03F3DA43BB681A407B699A4081
:1051C0004FF0FF317B6901FA03F3D9437B680B4051
:1051D000134318462437BD465DF8047B704780B5FD
:1051E00082B000AF78607868FFF74CFF00BF0837E7
:1051F000BD4680BD80B586B000AF0346B9607A6019
:10520000FB7300237B61FFF761FF78617A68B968FF
:105210007869FFF7B1FF024697F90F30114618463B
:10522000FFF780FF00BF1837BD4680BD80B582B054
:1052300000AF0346FB7197F907301846FFF754FF9C
:1052400000BF0837BD4680BD80B584B000AF786030
:105250007B689B6DFB60FFF7E5FAB8607B6893F8AD
:105260003530DBB2022B08D07B6880225A657B6820
:10527000002283F83420012352E07B681B681A68FF
:105280007B681B6822F016021A607B681B685A69EB
:105290007B681B6822F080025A617B681B6C002BC4
:1052A00003D17B689B6C002B07D07B681B681A6856
:1052B0007B681B6822F008021A607B681B681A680A
:1052C0007B681B6822F001021A6013E0FFF7AAFA5C
:1052D0000246BB68D31A052B0CD97B6820225A657D
:1052E0007B68032283F835207B68002283F8342012
:1052F000032315E07B681B681B6803F00103002B88
:10530000E4D17B68DB6D3F229A40FB689A607B6842
:10531000012283F835207B68002283F834200023A3
:1053200018461037BD4680BD80B483B000AF7860AA
:105330007B6893F83530DBB2022B04D07B68802287
:105340005A6501230CE07B68052283F835207B68D1
:105350001B681A687B681B6822F001021A60002330
:1053600018460C37BD465DF8047B704780B489B0A1
:1053700000AF7860396000237B6100233B6100232C
:10538000BB610023FB616BE10122FB6902FA03F3BD
:105390007B613B681B687A6913403B613A697B69B2
:1053A0009A4240F05A813B685B6803F00303012B8B
:1053B00005D03B685B6803F00303022B30D17B68A8
:1053C0009B68BB61FB695B00032202FA03F3DB43CA
:1053D000BA691340BB613B68DA68FB695B0002FA9B
:1053E00003F3BA691343BB617B68BA699A607B684F
:1053F0005B68BB610122FB6902FA03F3DB43BA6914
:105400001340BB613B685B681B0903F00102FB6949
:1054100002FA03F3BA691343BB617B68BA695A6045
:105420003B685B6803F00303032B17D07B68DB68E2
:10543000BB61FB695B00032202FA03F3DB43BA6939
:105440001340BB613B689A68FB695B0002FA03F397
:10545000BA691343BB617B68BA69DA603B685B6811
:1054600003F00303022B23D1FB69DA087B680832BF
:1054700053F82230BB61FB6903F007039B000F2246
:1054800002FA03F3DB43BA691340BB613B681A6954
:10549000FB6903F007039B0002FA03F3BA691343A5
:1054A000BB61FB69DA087B680832B96943F82210EE
:1054B0007B681B68BB61FB695B00032202FA03F394
:1054C000DB43BA691340BB613B685B6803F00302CE
:1054D000FB695B0002FA03F3BA691343BB617B68A3
:1054E000BA691A603B685B6803F44033002B00F034
:1054F000B4800023FB60604B5B6C5F4A43F48043E5
:1055000053645D4B5B6C03F48043FB60FB685B4A58
:10551000FB699B08023352F82330BB61FB6903F03F
:1055200003039B000F2202FA03F3DB43BA69134023
:10553000BB617B68524A93422BD07B68514A9342AD
:1055400025D07B68504A93421FD07B684F4A9342D4
:1055500019D07B684E4A934213D07B684D4A9342E0
:105560000DD07B684C4A934207D07B684B4A9342EC
:1055700001D107230EE008230CE006230AE00523EF
:1055800008E0042306E0032304E0022302E00123F1
:1055900000E00023FA6902F0030292009340BA6926
:1055A0001343BB613549FB699B080233BA6941F873
:1055B00023203B4B9B68BB613B69DB43BA691340CB
:1055C000BB613B685B6803F48013002B03D0BA69AE
:1055D0003B691343BB61324ABB699360304BDB6864
:1055E000BB613B69DB43BA691340BB613B685B68E5
:1055F00003F40013002B03D0BA693B691343BB616A
:10560000274ABB69D360264B5B68BB613B69DB43C0
:10561000BA691340BB613B685B6803F40033002B3D
:1056200003D0BA693B691343BB611D4ABB69536030
:105630001B4B1B68BB613B69DB43BA691340BB6111
:105640003B685B6803F48033002B03D0BA693B6985
:105650001343BB61124ABB691360FB690133FB61F1
:10566000FB690F2B7FF690AE00BF00BF2437BD460D
:105670005DF8047B704700BF0038024000380140ED
:10568000000002400004024000080240000C0240FA
:10569000001002400014024000180240001C0240AA
:1056A000003C014080B487B000AF786039600023CF
:1056B0003B610023FB600023BB6000237B61CDE0E6
:1056C00001227B6902FA03F33B613A683B691340AC
:1056D000FB60FA683B699A4240F0BD80654A7B698D
:1056E0009B08023352F82330BB607B6903F003034D
:1056F0009B000F2202FA03F3BA681340BB607B6879
:105700005D4A93422BD07B685C4A934225D07B68EC
:105710005B4A93421FD07B685A4A934219D07B68F8
:10572000594A934213D07B68584A93420DD07B6804
:10573000574A934207D07B68564A934201D10723C8
:105740000EE008230CE006230AE0052308E004230A
:1057500006E0032304E0022302E0012300E000232B
:105760007A6902F0030292009340BA689A4232D1F9
:10577000494B1A68FB68DB43474913400B60464BB3
:105780005A68FB68DB43444913404B60424BDA687C
:10579000FB68DB4340491340CB603F4B9A68FB6892
:1057A000DB433D4913408B607B6903F003039B009F
:1057B0000F2202FA03F3BB602E4A7B699B08023377
:1057C00052F82310BB68DA432A487B699B080A40D9
:1057D000023340F823207B681A687B695B00032151
:1057E00001FA03F3DB431A407B681A607B69DA082D
:1057F0007B68083253F822107B6903F007039B0093
:105800000F2202FA03F3DB437A69D20819407B685E
:10581000083243F822107B68DA687B695B00032159
:1058200001FA03F3DB431A407B68DA607B685A684D
:1058300001217B6901FA03F3DB431A407B685A605C
:105840007B689A687B695B00032101FA03F3DB4301
:105850001A407B689A607B6901337B617B690F2BFF
:105860007FF62EAF00BF00BF1C37BD465DF8047B3E
:10587000704700BF003801400000024000040240B1
:1058800000080240000C02400010024000140240D8
:1058900000180240001C0240003C014080B485B06A
:1058A00000AF78600B467B807B681A697B88134069
:1058B000002B02D00123FB7301E00023FB73FB7B71
:1058C00018461437BD465DF8047B704780B483B03A
:1058D00000AF78600B467B8013467B707B78002B93
:1058E00003D07A887B689A6103E07B881A047B681E
:1058F0009A6100BF0C37BD465DF8047B704780B4E9
:1059000085B000AF78600B467B807B685B69FB608D
:105910007A88FB6813401A04FB68D9437B880B40E4
:105920001A437B689A6100BF1437BD465DF8047B5B
:105930007047000080B584B000AF78607B68002BB2
:1059400001D101232BE17B6893F83D30DBB2002BC2
:1059500006D17B68002283F83C207868FEF7D6FAEF
:105960007B68242283F83D207B681B681A687B686B
:105970001B6822F001021A607B681B681A687B684A
:105980001B6842F400421A607B681B681A687B68D7
:105990001B6822F400421A6002F0F8F8F8607B6895
:1059A0005B68814A934207D8FB68804A934294BF60
:1059B00001230023DBB206E0FB687D4A934294BFDB
:1059C00001230023DBB2002B01D00123E7E0FB68B9
:1059D000784AA2FB03239B0CBB607B681B685B6857
:1059E00023F03F017B681B68BA680A435A607B68F2
:1059F0001B681B6A23F03F017B685B686A4A93421D
:105A000002D8BB68013309E0BB684FF4967202FB11
:105A100003F3694AA2FB03239B0901337A681268E6
:105A20000B4313627B681B68DB6923F44F4222F04F
:105A3000FF027B685B685C498B4219D8FB68591E82
:105A40007B685B685B00B1FBF3F3591C40F6FC73A9
:105A50000B40002B0AD0FB68591E7B685B685B001B
:105A6000B1FBF3F30133C3F30B0351E004234FE025
:105A70007B689B68002B11D1FB68581E7B685968B6
:105A80000B465B000B44B0FBF3F30133C3F30B0392
:105A9000002B0CBF01230023DBB212E0FB68581E71
:105AA0007B6859680B469B000B4499000B44B0FB84
:105AB000F3F30133C3F30B03002B0CBF01230023CB
:105AC000DBB2002B01D0012322E07B689B68002B16
:105AD0000ED1FB68581E7B6859680B465B000B446F
